{
  "_format": "hh-sol-artifact-1",
  "contractName": "Lending",
  "sourceName": "contracts/Lending/Lending.sol",
  "abi": [
    {
      "inputs": [],
      "name": "NeedsMoreThanZero",
      "type": "error"
    },
    {
      "inputs": [
        {
          "internalType": "address",
          "name": "token",
          "type": "address"
        }
      ],
      "name": "TokenNotAllowed",
      "type": "error"
    },
    {
      "inputs": [],
      "name": "TransferFailed",
      "type": "error"
    },
    {
      "anonymous": false,
      "inputs": [
        {
          "indexed": true,
          "internalType": "address",
          "name": "token",
          "type": "address"
        },
        {
          "indexed": true,
          "internalType": "address",
          "name": "priceFeed",
          "type": "address"
        }
      ],
      "name": "AllowedTokenSet",
      "type": "event"
    },
    {
      "anonymous": false,
      "inputs": [
        {
          "indexed": true,
          "internalType": "address",
          "name": "account",
          "type": "address"
        },
        {
          "indexed": true,
          "internalType": "address",
          "name": "token",
          "type": "address"
        },
        {
          "indexed": true,
          "internalType": "uint256",
          "name": "amount",
          "type": "uint256"
        }
      ],
      "name": "Borrow",
      "type": "event"
    },
    {
      "anonymous": false,
      "inputs": [
        {
          "indexed": true,
          "internalType": "address",
          "name": "account",
          "type": "address"
        },
        {
          "indexed": true,
          "internalType": "address",
          "name": "token",
          "type": "address"
        },
        {
          "indexed": true,
          "internalType": "uint256",
          "name": "amount",
          "type": "uint256"
        }
      ],
      "name": "Deposit",
      "type": "event"
    },
    {
      "anonymous": false,
      "inputs": [
        {
          "indexed": true,
          "internalType": "address",
          "name": "account",
          "type": "address"
        },
        {
          "indexed": true,
          "internalType": "address",
          "name": "repayToken",
          "type": "address"
        },
        {
          "indexed": true,
          "internalType": "address",
          "name": "rewardToken",
          "type": "address"
        },
        {
          "indexed": false,
          "internalType": "uint256",
          "name": "halfDebtInEth",
          "type": "uint256"
        },
        {
          "indexed": false,
          "internalType": "address",
          "name": "liquidator",
          "type": "address"
        }
      ],
      "name": "Liquidate",
      "type": "event"
    },
    {
      "anonymous": false,
      "inputs": [
        {
          "indexed": true,
          "internalType": "address",
          "name": "previousOwner",
          "type": "address"
        },
        {
          "indexed": true,
          "internalType": "address",
          "name": "newOwner",
          "type": "address"
        }
      ],
      "name": "OwnershipTransferred",
      "type": "event"
    },
    {
      "anonymous": false,
      "inputs": [
        {
          "indexed": true,
          "internalType": "address",
          "name": "account",
          "type": "address"
        },
        {
          "indexed": true,
          "internalType": "address",
          "name": "token",
          "type": "address"
        },
        {
          "indexed": true,
          "internalType": "uint256",
          "name": "amount",
          "type": "uint256"
        }
      ],
      "name": "Repay",
      "type": "event"
    },
    {
      "anonymous": false,
      "inputs": [
        {
          "indexed": true,
          "internalType": "address",
          "name": "account",
          "type": "address"
        },
        {
          "indexed": true,
          "internalType": "address",
          "name": "token",
          "type": "address"
        },
        {
          "indexed": true,
          "internalType": "uint256",
          "name": "amount",
          "type": "uint256"
        }
      ],
      "name": "Withdraw",
      "type": "event"
    },
    {
      "inputs": [],
      "name": "LIQUIDATION_REWARD",
      "outputs": [
        {
          "internalType": "uint256",
          "name": "",
          "type": "uint256"
        }
      ],
      "stateMutability": "view",
      "type": "function"
    },
    {
      "inputs": [],
      "name": "LIQUIDATION_THRESHOLD",
      "outputs": [
        {
          "internalType": "uint256",
          "name": "",
          "type": "uint256"
        }
      ],
      "stateMutability": "view",
      "type": "function"
    },
    {
      "inputs": [],
      "name": "MIN_HEALH_FACTOR",
      "outputs": [
        {
          "internalType": "uint256",
          "name": "",
          "type": "uint256"
        }
      ],
      "stateMutability": "view",
      "type": "function"
    },
    {
      "inputs": [
        {
          "internalType": "address",
          "name": "token",
          "type": "address"
        },
        {
          "internalType": "uint256",
          "name": "amount",
          "type": "uint256"
        }
      ],
      "name": "borrow",
      "outputs": [],
      "stateMutability": "nonpayable",
      "type": "function"
    },
    {
      "inputs": [
        {
          "internalType": "address",
          "name": "token",
          "type": "address"
        },
        {
          "internalType": "uint256",
          "name": "amount",
          "type": "uint256"
        }
      ],
      "name": "deposit",
      "outputs": [],
      "stateMutability": "nonpayable",
      "type": "function"
    },
    {
      "inputs": [
        {
          "internalType": "address",
          "name": "user",
          "type": "address"
        }
      ],
      "name": "getAccountBorrowedValue",
      "outputs": [
        {
          "internalType": "uint256",
          "name": "",
          "type": "uint256"
        }
      ],
      "stateMutability": "view",
      "type": "function"
    },
    {
      "inputs": [
        {
          "internalType": "address",
          "name": "user",
          "type": "address"
        }
      ],
      "name": "getAccountCollateralValue",
      "outputs": [
        {
          "internalType": "uint256",
          "name": "",
          "type": "uint256"
        }
      ],
      "stateMutability": "view",
      "type": "function"
    },
    {
      "inputs": [
        {
          "internalType": "address",
          "name": "user",
          "type": "address"
        }
      ],
      "name": "getAccountInformation",
      "outputs": [
        {
          "internalType": "uint256",
          "name": "borrowedValueInUSD",
          "type": "uint256"
        },
        {
          "internalType": "uint256",
          "name": "collateralValueInUSD",
          "type": "uint256"
        }
      ],
      "stateMutability": "view",
      "type": "function"
    },
    {
      "inputs": [
        {
          "internalType": "address",
          "name": "token",
          "type": "address"
        },
        {
          "internalType": "uint256",
          "name": "amount",
          "type": "uint256"
        }
      ],
      "name": "getTokenValueFromUSD",
      "outputs": [
        {
          "internalType": "uint256",
          "name": "",
          "type": "uint256"
        }
      ],
      "stateMutability": "view",
      "type": "function"
    },
    {
      "inputs": [
        {
          "internalType": "address",
          "name": "token",
          "type": "address"
        },
        {
          "internalType": "uint256",
          "name": "amount",
          "type": "uint256"
        }
      ],
      "name": "getUSDValue",
      "outputs": [
        {
          "internalType": "uint256",
          "name": "",
          "type": "uint256"
        }
      ],
      "stateMutability": "view",
      "type": "function"
    },
    {
      "inputs": [
        {
          "internalType": "address",
          "name": "account",
          "type": "address"
        }
      ],
      "name": "healthFactor",
      "outputs": [
        {
          "internalType": "uint256",
          "name": "",
          "type": "uint256"
        }
      ],
      "stateMutability": "view",
      "type": "function"
    },
    {
      "inputs": [
        {
          "internalType": "address",
          "name": "account",
          "type": "address"
        },
        {
          "internalType": "address",
          "name": "repayToken",
          "type": "address"
        },
        {
          "internalType": "address",
          "name": "rewardToken",
          "type": "address"
        }
      ],
      "name": "liquidate",
      "outputs": [],
      "stateMutability": "nonpayable",
      "type": "function"
    },
    {
      "inputs": [],
      "name": "owner",
      "outputs": [
        {
          "internalType": "address",
          "name": "",
          "type": "address"
        }
      ],
      "stateMutability": "view",
      "type": "function"
    },
    {
      "inputs": [],
      "name": "renounceOwnership",
      "outputs": [],
      "stateMutability": "nonpayable",
      "type": "function"
    },
    {
      "inputs": [
        {
          "internalType": "address",
          "name": "token",
          "type": "address"
        },
        {
          "internalType": "uint256",
          "name": "amount",
          "type": "uint256"
        }
      ],
      "name": "repay",
      "outputs": [],
      "stateMutability": "nonpayable",
      "type": "function"
    },
    {
      "inputs": [
        {
          "internalType": "address",
          "name": "",
          "type": "address"
        },
        {
          "internalType": "address",
          "name": "",
          "type": "address"
        }
      ],
      "name": "s_accountToTokenBorrows",
      "outputs": [
        {
          "internalType": "uint256",
          "name": "",
          "type": "uint256"
        }
      ],
      "stateMutability": "view",
      "type": "function"
    },
    {
      "inputs": [
        {
          "internalType": "address",
          "name": "",
          "type": "address"
        },
        {
          "internalType": "address",
          "name": "",
          "type": "address"
        }
      ],
      "name": "s_accountToTokenDeposits",
      "outputs": [
        {
          "internalType": "uint256",
          "name": "",
          "type": "uint256"
        }
      ],
      "stateMutability": "view",
      "type": "function"
    },
    {
      "inputs": [
        {
          "internalType": "uint256",
          "name": "",
          "type": "uint256"
        }
      ],
      "name": "s_allowedTokens",
      "outputs": [
        {
          "internalType": "address",
          "name": "",
          "type": "address"
        }
      ],
      "stateMutability": "view",
      "type": "function"
    },
    {
      "inputs": [
        {
          "internalType": "address",
          "name": "",
          "type": "address"
        }
      ],
      "name": "s_tokenToPriceFeed",
      "outputs": [
        {
          "internalType": "address",
          "name": "",
          "type": "address"
        }
      ],
      "stateMutability": "view",
      "type": "function"
    },
    {
      "inputs": [
        {
          "internalType": "address",
          "name": "token",
          "type": "address"
        },
        {
          "internalType": "address",
          "name": "priceFeed",
          "type": "address"
        }
      ],
      "name": "setAllowedToken",
      "outputs": [],
      "stateMutability": "nonpayable",
      "type": "function"
    },
    {
      "inputs": [
        {
          "internalType": "address",
          "name": "newOwner",
          "type": "address"
        }
      ],
      "name": "transferOwnership",
      "outputs": [],
      "stateMutability": "nonpayable",
      "type": "function"
    },
    {
      "inputs": [
        {
          "internalType": "address",
          "name": "token",
          "type": "address"
        },
        {
          "internalType": "uint256",
          "name": "amount",
          "type": "uint256"
        }
      ],
      "name": "withdraw",
      "outputs": [],
      "stateMutability": "nonpayable",
      "type": "function"
    }
  ],
  "bytecode": "0x608060405234801561001057600080fd5b50600160005561001f33610024565b610076565b600180546001600160a01b038381166001600160a01b0319831681179093556040519116919082907f8be0079c531659141344cd1fd0a4f28419497f9722a3daafe3b4186f6b6457e090600090a35050565b61159c806100856000396000f3fe608060405234801561001057600080fd5b50600436106101425760003560e01c806390a8ae9b116100b8578063c183f76d1161007c578063c183f76d146102dc578063ca5ce2ec146102ef578063df80eed214610302578063f2fde38b1461030d578063f3fef3a314610320578063fa76dcf21461033357600080fd5b806390a8ae9b1461026557806394ecead51461026d5780639b35678d14610296578063a83a4f6a146102c1578063ad0d7594146102d457600080fd5b80634f0cc2fa1161010a5780634f0cc2fa146101eb5780636ad9f9df146101fe578063715018a6146102115780637be564fc146102195780637d1a4450146102415780638da5cb5b1461025457600080fd5b80630af8c88e1461014757806322867d7814610177578063396aaa8f1461018c57806347e7ef24146101c55780634b8a3529146101d8575b600080fd5b61015a6101553660046112dc565b610346565b6040516001600160a01b0390911681526020015b60405180910390f35b61018a610185366004611311565b610370565b005b6101b761019a36600461133b565b600460209081526000928352604080842090915290825290205481565b60405190815260200161016e565b61018a6101d3366004611311565b610453565b61018a6101e6366004611311565b610604565b6101b76101f936600461136e565b6108c6565b6101b761020c36600461136e565b610953565b61018a6109b7565b61022c61022736600461136e565b6109cb565b6040805192835260208301919091520161016e565b6101b761024f36600461136e565b6109e9565b6001546001600160a01b031661015a565b6101b7605081565b61015a61027b36600461136e565b6002602052600090815260409020546001600160a01b031681565b6101b76102a436600461133b565b600560209081526000928352604080842090915290825290205481565b6101b76102cf366004611311565b610a6f565b6101b7600581565b61018a6102ea36600461133b565b610b19565b61018a6102fd366004611390565b610c2f565b6101b76305f5e10081565b61018a61031b36600461136e565b610de4565b61018a61032e366004611311565b610e5d565b6101b7610341366004611311565b610fb3565b6003818154811061035657600080fd5b6000918252602090912001546001600160a01b0316905081565b6002600054141561039c5760405162461bcd60e51b8152600401610393906113d3565b60405180910390fd5b600260008181556001600160a01b03808516825260209290925260409020548391166103e65760405163094403b760e41b81526001600160a01b0382166004820152602401610393565b818061040557604051630f45911f60e41b815260040160405180910390fd5b60405183906001600160a01b0386169033907f05f2eeda0e08e4b437f487c8d7d29b14537d15e3488170dc3de5dbdf8dac468490600090a461044833858561105d565b505060016000555050565b600260005414156104765760405162461bcd60e51b8152600401610393906113d3565b600260008181556001600160a01b03808516825260209290925260409020548391166104c05760405163094403b760e41b81526001600160a01b0382166004820152602401610393565b81806104df57604051630f45911f60e41b815260040160405180910390fd5b60405183906001600160a01b0386169033907f5548c837ab068cf56a2c2479df0882a4922fd203edb7517321831d95078c5f6290600090a43360009081526004602090815260408083206001600160a01b03881684529091528120805485929061054a908490611420565b90915550506040516323b872dd60e01b8152336004820152306024820152604481018490526000906001600160a01b038616906323b872dd90606401602060405180830381600087803b1580156105a057600080fd5b505af11580156105b4573d6000803e3d6000fd5b505050506040513d601f19601f820116820180604052508101906105d89190611438565b9050806105f8576040516312171d8360e31b815260040160405180910390fd5b50506001600055505050565b600260005414156106275760405162461bcd60e51b8152600401610393906113d3565b600260008181556001600160a01b03808516825260209290925260409020548391166106715760405163094403b760e41b81526001600160a01b0382166004820152602401610393565b818061069057604051630f45911f60e41b815260040160405180910390fd5b6040516370a0823160e01b815230600482015283906001600160a01b038616906370a082319060240160206040518083038186803b1580156106d157600080fd5b505afa1580156106e5573d6000803e3d6000fd5b505050506040513d601f19601f82011682018060405250810190610709919061145a565b10156107575760405162461bcd60e51b815260206004820152601b60248201527f4e6f7420656e6f75676820746f6b656e7320746f20626f72726f7700000000006044820152606401610393565b3360009081526005602090815260408083206001600160a01b03881684529091528120805485929061078a908490611420565b909155505060405183906001600160a01b0386169033907f312a5e5e1079f5dda4e95dbbd0b908b291fd5b992ef22073643ab691572c5b5290600090a460405163a9059cbb60e01b8152336004820152602481018490526000906001600160a01b0386169063a9059cbb90604401602060405180830381600087803b15801561081257600080fd5b505af1158015610826573d6000803e3d6000fd5b505050506040513d601f19601f8201168201806040525081019061084a9190611438565b90508061086a576040516312171d8360e31b815260040160405180910390fd5b6305f5e10061087833610953565b10156105f85760405162461bcd60e51b815260206004820152601b60248201527f506c6174666f726d2077696c6c20676f20696e736f6c76656e742100000000006044820152606401610393565b600080805b60035481101561094c576000600382815481106108ea576108ea611473565b60009182526020808320909101546001600160a01b038881168452600583526040808520919092168085529252822054909250906109288383610fb3565b90506109348186611420565b9450505050808061094490611489565b9150506108cb565b5092915050565b6000806000610961846109cb565b9092509050600060646109756050846114a4565b61097f91906114c3565b90508261099557506402540be400949350505050565b826109a4826305f5e1006114a4565b6109ae91906114c3565b95945050505050565b6109bf611149565b6109c960006111a3565b565b6000806109d7836108c6565b91506109e2836109e9565b9050915091565b600080805b60035481101561094c57600060038281548110610a0d57610a0d611473565b60009182526020808320909101546001600160a01b03888116845260048352604080852091909216808552925282205490925090610a4b8383610fb3565b9050610a578186611420565b94505050508080610a6790611489565b9150506109ee565b6001600160a01b03808316600090815260026020526040808220548151633fabe5a360e21b81529151929316918391839163feaf968c9160048082019260a092909190829003018186803b158015610ac657600080fd5b505afa158015610ada573d6000803e3d6000fd5b505050506040513d601f19601f82011682018060405250810190610afe91906114ff565b5050509150508084670de0b6b3a76400006109a491906114a4565b610b21611149565b600354600090815b81811015610b8457846001600160a01b031660038281548110610b4e57610b4e611473565b6000918252602090912001546001600160a01b03161415610b725760019250610b84565b80610b7c81611489565b915050610b29565b5081610bd657600380546001810182556000919091527fc2575a0e9e593c00f959f8c92f12db2869c3395a3b0502d05e2516446f71f85b0180546001600160a01b0319166001600160a01b0386161790555b6001600160a01b0384811660008181526002602052604080822080546001600160a01b0319169488169485179055517f4f9bd0d8360fd59a62c52cf8b386f7c7b65097c9e336e860d08ffb9df34067d19190a350505050565b60026000541415610c525760405162461bcd60e51b8152600401610393906113d3565b60026000556305f5e100610c6584610953565b10610cb25760405162461bcd60e51b815260206004820152601c60248201527f4163636f756e742063616e2774206265206c69717569646174656421000000006044820152606401610393565b6001600160a01b038084166000908152600560209081526040808320938616835292905290812054610ce6906002906114c3565b90506000610cf48483610fb3565b905060008111610d465760405162461bcd60e51b815260206004820152601e60248201527f43686f6f7365206120646966666572656e74207265706179546f6b656e2100006044820152606401610393565b60006064610d556005846114a4565b610d5f91906114c3565b90506000610d71856102cf8585611420565b604080518581523360208201529192506001600160a01b038088169289821692918b16917fcea6068021f706074af611c2a4b6b08820c5b8223a80149684c64c60ce7be3cc910160405180910390a4610dcb87878661105d565b610dd68786836111f5565b505060016000555050505050565b610dec611149565b6001600160a01b038116610e515760405162461bcd60e51b815260206004820152602660248201527f4f776e61626c653a206e6577206f776e657220697320746865207a65726f206160448201526564647265737360d01b6064820152608401610393565b610e5a816111a3565b50565b60026000541415610e805760405162461bcd60e51b8152600401610393906113d3565b60026000558080610ea457604051630f45911f60e41b815260040160405180910390fd5b3360009081526004602090815260408083206001600160a01b0387168452909152902054821115610f0a5760405162461bcd60e51b815260206004820152601060248201526f4e6f7420656e6f7567682066756e647360801b6044820152606401610393565b60405182906001600160a01b0385169033907f9b1bfa7fa9ee420a16e124f794c35ac9f90472acc99140eb2f6447c714cad8eb90600090a4610f4d3384846111f5565b6305f5e100610f5b33610953565b1015610fa95760405162461bcd60e51b815260206004820152601b60248201527f506c6174666f726d2077696c6c20676f20696e736f6c76656e742100000000006044820152606401610393565b5050600160005550565b6001600160a01b03808316600090815260026020526040808220548151633fabe5a360e21b81529151929316918391839163feaf968c9160048082019260a092909190829003018186803b15801561100a57600080fd5b505afa15801561101e573d6000803e3d6000fd5b505050506040513d601f19601f8201168201806040525081019061104291906114ff565b505050915050670de0b6b3a764000084826109a491906114a4565b6001600160a01b0380841660009081526005602090815260408083209386168352929052908120805483929061109490849061154f565b90915550506040516323b872dd60e01b8152336004820152306024820152604481018290526000906001600160a01b038416906323b872dd906064015b602060405180830381600087803b1580156110eb57600080fd5b505af11580156110ff573d6000803e3d6000fd5b505050506040513d601f19601f820116820180604052508101906111239190611438565b905080611143576040516312171d8360e31b815260040160405180910390fd5b50505050565b6001546001600160a01b031633146109c95760405162461bcd60e51b815260206004820181905260248201527f4f776e61626c653a2063616c6c6572206973206e6f7420746865206f776e65726044820152606401610393565b600180546001600160a01b038381166001600160a01b0319831681179093556040519116919082907f8be0079c531659141344cd1fd0a4f28419497f9722a3daafe3b4186f6b6457e090600090a35050565b6001600160a01b0380841660009081526004602090815260408083209386168352929052205481111561126a5760405162461bcd60e51b815260206004820152601c60248201527f4e6f7420656e6f7567682066756e647320746f207769746864726177000000006044820152606401610393565b6001600160a01b038084166000908152600460209081526040808320938616835292905290812080548392906112a190849061154f565b909155505060405163a9059cbb60e01b8152336004820152602481018290526000906001600160a01b0384169063a9059cbb906044016110d1565b6000602082840312156112ee57600080fd5b5035919050565b80356001600160a01b038116811461130c57600080fd5b919050565b6000806040838503121561132457600080fd5b61132d836112f5565b946020939093013593505050565b6000806040838503121561134e57600080fd5b611357836112f5565b9150611365602084016112f5565b90509250929050565b60006020828403121561138057600080fd5b611389826112f5565b9392505050565b6000806000606084860312156113a557600080fd5b6113ae846112f5565b92506113bc602085016112f5565b91506113ca604085016112f5565b90509250925092565b6020808252601f908201527f5265656e7472616e637947756172643a207265656e7472616e742063616c6c00604082015260600190565b634e487b7160e01b600052601160045260246000fd5b600082198211156114335761143361140a565b500190565b60006020828403121561144a57600080fd5b8151801515811461138957600080fd5b60006020828403121561146c57600080fd5b5051919050565b634e487b7160e01b600052603260045260246000fd5b600060001982141561149d5761149d61140a565b5060010190565b60008160001904831182151516156114be576114be61140a565b500290565b6000826114e057634e487b7160e01b600052601260045260246000fd5b500490565b805169ffffffffffffffffffff8116811461130c57600080fd5b600080600080600060a0868803121561151757600080fd5b611520866114e5565b9450602086015193506040860151925060608601519150611543608087016114e5565b90509295509295909350565b6000828210156115615761156161140a565b50039056fea264697066735822122053f2b1bc0771e9f4336bf240e377d6e8f839597fc18869c4a99ec00d3028346064736f6c63430008090033",
  "linkReferences": {},
  "deployedLinkReferences": {}
}