{
  "_format": "hh-sol-artifact-1",
  "contractName": "Factory",
  "sourceName": "contracts/StableSwap/StableFactory.sol",
  "abi": [
    {
      "anonymous": false,
      "inputs": [
        {
          "indexed": true,
          "internalType": "address",
          "name": "previousOwner",
          "type": "address"
        },
        {
          "indexed": true,
          "internalType": "address",
          "name": "newOwner",
          "type": "address"
        }
      ],
      "name": "OwnershipTransferred",
      "type": "event"
    },
    {
      "inputs": [
        {
          "internalType": "uint256",
          "name": "",
          "type": "uint256"
        }
      ],
      "name": "allPairs",
      "outputs": [
        {
          "internalType": "address",
          "name": "",
          "type": "address"
        }
      ],
      "stateMutability": "view",
      "type": "function"
    },
    {
      "inputs": [
        {
          "internalType": "address",
          "name": "tokenA",
          "type": "address"
        },
        {
          "internalType": "address",
          "name": "tokenB",
          "type": "address"
        }
      ],
      "name": "createPair",
      "outputs": [
        {
          "internalType": "address",
          "name": "pair",
          "type": "address"
        }
      ],
      "stateMutability": "nonpayable",
      "type": "function"
    },
    {
      "inputs": [
        {
          "internalType": "address",
          "name": "",
          "type": "address"
        },
        {
          "internalType": "address",
          "name": "",
          "type": "address"
        }
      ],
      "name": "getPair",
      "outputs": [
        {
          "internalType": "address",
          "name": "",
          "type": "address"
        }
      ],
      "stateMutability": "view",
      "type": "function"
    },
    {
      "inputs": [],
      "name": "name",
      "outputs": [
        {
          "internalType": "string",
          "name": "",
          "type": "string"
        }
      ],
      "stateMutability": "view",
      "type": "function"
    },
    {
      "inputs": [],
      "name": "owner",
      "outputs": [
        {
          "internalType": "address",
          "name": "",
          "type": "address"
        }
      ],
      "stateMutability": "view",
      "type": "function"
    },
    {
      "inputs": [],
      "name": "renounceOwnership",
      "outputs": [],
      "stateMutability": "nonpayable",
      "type": "function"
    },
    {
      "inputs": [],
      "name": "symbol",
      "outputs": [
        {
          "internalType": "string",
          "name": "",
          "type": "string"
        }
      ],
      "stateMutability": "view",
      "type": "function"
    },
    {
      "inputs": [
        {
          "internalType": "address",
          "name": "newOwner",
          "type": "address"
        }
      ],
      "name": "transferOwnership",
      "outputs": [],
      "stateMutability": "nonpayable",
      "type": "function"
    }
  ],
  "bytecode": "0x608060405234801561001057600080fd5b5061001a3361001f565b61006f565b600080546001600160a01b038381166001600160a01b0319831681178455604051919092169283917f8be0079c531659141344cd1fd0a4f28419497f9722a3daafe3b4186f6b6457e09190a35050565b611ec48061007e6000396000f3fe608060405234801561001057600080fd5b50600436106100885760003560e01c806395d89b411161005b57806395d89b4114610111578063c9c6539614610132578063e6a4390514610145578063f2fde38b1461017957600080fd5b806306fdde031461008d5780631e3dd18b146100cb578063715018a6146100f65780638da5cb5b14610100575b600080fd5b6100b560405180604001604052806009815260200168050616e6461537761760bc1b81525081565b6040516100c291906104f4565b60405180910390f35b6100de6100d9366004610549565b61018c565b6040516001600160a01b0390911681526020016100c2565b6100fe6101b6565b005b6000546001600160a01b03166100de565b6100b560405180604001604052806002815260200161505360f01b81525081565b6100de61014036600461057e565b6101ca565b6100de61015336600461057e565b60016020908152600092835260408084209091529082529020546001600160a01b031681565b6100fe6101873660046105b1565b6103c4565b6002818154811061019c57600080fd5b6000918252602090912001546001600160a01b0316905081565b6101be61043d565b6101c86000610497565b565b60006101d461043d565b816001600160a01b0316836001600160a01b03161461023a5760405162461bcd60e51b815260206004820152601960248201527f50532d466163746f72793a20414444524553535f455155414c0000000000000060448201526064015b60405180910390fd5b600080836001600160a01b0316856001600160a01b03161061025d578385610260565b84845b90925090506001600160a01b0382166102bb5760405162461bcd60e51b815260206004820152601860248201527f50532d466163746f72793a205a45524f5f4144445245535300000000000000006044820152606401610231565b6001600160a01b03828116600090815260016020908152604080832085851684529091529020541661032f5760405162461bcd60e51b815260206004820152601760248201527f50532d466163746f72793a20504149525f4558495354530000000000000000006044820152606401610231565b6040516bffffffffffffffffffffffff19606084811b8216602084015283901b166034820152600090604801604051602081830303815290604052805190602001209050808383604051610382906104e7565b6001600160a01b039283168152911660208201526040018190604051809103906000f59050801580156103b9573d6000803e3d6000fd5b509695505050505050565b6103cc61043d565b6001600160a01b0381166104315760405162461bcd60e51b815260206004820152602660248201527f4f776e61626c653a206e6577206f776e657220697320746865207a65726f206160448201526564647265737360d01b6064820152608401610231565b61043a81610497565b50565b6000546001600160a01b031633146101c85760405162461bcd60e51b815260206004820181905260248201527f4f776e61626c653a2063616c6c6572206973206e6f7420746865206f776e65726044820152606401610231565b600080546001600160a01b038381166001600160a01b0319831681178455604051919092169283917f8be0079c531659141344cd1fd0a4f28419497f9722a3daafe3b4186f6b6457e09190a35050565b6118bb806105d483390190565b600060208083528351808285015260005b8181101561052157858101830151858201604001528201610505565b81811115610533576000604083870101525b50601f01601f1916929092016040019392505050565b60006020828403121561055b57600080fd5b5035919050565b80356001600160a01b038116811461057957600080fd5b919050565b6000806040838503121561059157600080fd5b61059a83610562565b91506105a860208401610562565b90509250929050565b6000602082840312156105c357600080fd5b6105cc82610562565b939250505056fe60c06040526001608081815260a09190915262000020906002908162000083565b503480156200002e57600080fd5b50604051620018bb380380620018bb8339810160408190526200005191620000ff565b600080546001600160a01b039384166001600160a01b0319918216179091556001805492909316911617905562000137565b8260028101928215620000b9579160200282015b82811115620000b9578251829060ff1690559160200191906001019062000097565b50620000c7929150620000cb565b5090565b5b80821115620000c75760008155600101620000cc565b80516001600160a01b0381168114620000fa57600080fd5b919050565b600080604083850312156200011357600080fd5b6200011e83620000e2565b91506200012e60208401620000e2565b90509250929050565b61177480620001476000396000f3fe608060405234801561001057600080fd5b506004361061009e5760003560e01c80637066b5b2116100665780637066b5b21461012357806370a082311461013657806394edaa6314610156578063a60dc3b114610176578063e25aa5fa1461019e57600080fd5b806318160ddd146100a35780634903b0d1146100bf5780634f64b2be146100d25780635673b02d146100fd5780636f76ab1814610110575b600080fd5b6100ac60065481565b6040519081526020015b60405180910390f35b6100ac6100cd366004611419565b6101a6565b6100e56100e0366004611419565b6101bd565b6040516001600160a01b0390911681526020016100b6565b6100ac61010b366004611432565b6101dd565b6100ac61011e366004611475565b6104c8565b6100ac6101313660046114a0565b610898565b6100ac6101443660046114cc565b60076020526000908152604090205481565b6101696101643660046114f5565b6109b5565b6040516100b69190611522565b610189610184366004611553565b610b4a565b604080519283526020830191909152016100b6565b6100ac610b62565b600481600281106101b657600080fd5b0154905081565b600081600281106101cd57600080fd5b01546001600160a01b0316905081565b60008385141561021c5760405162461bcd60e51b815260206004820152600560248201526434901e903560d91b60448201526064015b60405180910390fd5b6000856002811061022f5761022f611575565b01546040516323b872dd60e01b8152336004820152306024820152604481018590526001600160a01b03909116906323b872dd90606401602060405180830381600087803b15801561028057600080fd5b505af1158015610294573d6000803e3d6000fd5b505050506040513d601f19601f820116820180604052508101906102b8919061158b565b5060006102c3610bb2565b90506000600287600281106102da576102da611575565b01546102e690866115c3565b8288600281106102f8576102f8611575565b602002015161030791906115e2565b9050600082876002811061031d5761031d611575565b60200201519050600061033289898587610c25565b90506002886002811061034757610347611575565b0154600161035583856115fa565b61035f91906115fa565b6103699190611611565b94506000620f424061037d61012c886115c3565b6103879190611611565b905061039381876115fa565b9550868610156103d05760405162461bcd60e51b8152602060048201526008602482015267323c901e1036b4b760c11b6044820152606401610213565b8760048b600281106103e4576103e4611575565b0160008282546103f491906115e2565b9091555086905060048a6002811061040e5761040e611575565b01600082825461041e91906115fa565b9091555060009050896002811061043757610437611575565b015460405163a9059cbb60e01b8152336004820152602481018890526001600160a01b039091169063a9059cbb90604401602060405180830381600087803b15801561048257600080fd5b505af1158015610496573d6000803e3d6000fd5b505050506040513d601f19601f820116820180604052508101906104ba919061158b565b505050505050949350505050565b60065460009081806104d8610bb2565b905082156104ec576104e981610dee565b91505b6104f46113fb565b60005b600281101561065a57600088826002811061051457610514611575565b60200201359050801561061a576000826002811061053457610534611575565b01546040516323b872dd60e01b8152336004820152306024820152604481018390526001600160a01b03909116906323b872dd90606401602060405180830381600087803b15801561058557600080fd5b505af1158015610599573d6000803e3d6000fd5b505050506040513d601f19601f820116820180604052508101906105bd919061158b565b50600282600281106105d1576105d1611575565b01546105dd90826115c3565b8483600281106105ef576105ef611575565b60200201516105fe91906115e2565b83836002811061061057610610611575565b6020020152610649565b83826002811061062c5761062c611575565b602002015183836002811061064357610643611575565b60200201525b5061065381611633565b90506104f7565b50600061066682610dee565b90508381116106b75760405162461bcd60e51b815260206004820152601960248201527f6c6971756964697479206469646e277420696e637265617365000000000000006044820152606401610213565b600085156107b25760005b60028110156107a157600086848784600281106106e1576106e1611575565b60200201516106f091906115c3565b6106fa9190611611565b9050600061071e86846002811061071357610713611575565b602002015183610fa1565b9050620f424081610731600160026115fa565b61073c9060046115c3565b610749600261012c6115c3565b6107539190611611565b61075d91906115c3565b6107679190611611565b86846002811061077957610779611575565b6020020181815161078a91906115fa565b90525061079a9150829050611633565b90506106c2565b506107ab83610dee565b90506107b5565b50805b60005b6002811015610811578981600281106107d3576107d3611575565b6020020135600482600281106107eb576107eb611575565b0160008282546107fb91906115e2565b9091555061080a905081611633565b90506107b8565b50851561083f57848661082482846115fa565b61082e91906115c3565b6108389190611611565b9650610843565b8096505b878710156108825760405162461bcd60e51b815260206004820152600c60248201526b39b430b932b9901e1036b4b760a11b6044820152606401610213565b61088c3388610fcd565b50505050505092915050565b60006108a48484611017565b509050818110156108e35760405162461bcd60e51b815260206004820152600960248201526837baba101e1036b4b760b91b6044820152606401610213565b80600484600281106108f7576108f7611575565b01600082825461090791906115fa565b909155506109179050338561124a565b6000836002811061092a5761092a611575565b015460405163a9059cbb60e01b8152336004820152602481018390526001600160a01b039091169063a9059cbb90604401602060405180830381600087803b15801561097557600080fd5b505af1158015610989573d6000803e3d6000fd5b505050506040513d601f19601f820116820180604052508101906109ad919061158b565b509392505050565b6109bd6113fb565b60065460005b6002811015610b385760008286600484600281106109e3576109e3611575565b01546109ef91906115c3565b6109f99190611611565b9050848260028110610a0d57610a0d611575565b6020020135811015610a4d5760405162461bcd60e51b815260206004820152600960248201526837baba101e1036b4b760b91b6044820152606401610213565b8060048360028110610a6157610a61611575565b016000828254610a7191906115fa565b90915550819050848360028110610a8a57610a8a611575565b602002015260008260028110610aa257610aa2611575565b015460405163a9059cbb60e01b8152336004820152602481018390526001600160a01b039091169063a9059cbb90604401602060405180830381600087803b158015610aed57600080fd5b505af1158015610b01573d6000803e3d6000fd5b505050506040513d601f19601f82011682018060405250810190610b25919061158b565b505080610b3190611633565b90506109c3565b50610b43338561124a565b5092915050565b600080610b578484611017565b915091509250929050565b600080610b75610b70610bb2565b610dee565b6006549091508015610ba95780610b8e6012600a611732565b610b9890846115c3565b610ba29190611611565b9250505090565b60009250505090565b610bba6113fb565b60005b6002811015610c215760028160028110610bd957610bd9611575565b015460048260028110610bee57610bee611575565b0154610bfa91906115c3565b828260028110610c0c57610c0c611575565b6020020152610c1a81611633565b9050610bbd565b5090565b6000806002610c356001826115fa565b610c40906002611732565b610c4c906103e86115c3565b610c5691906115c3565b90506000610c6384610dee565b905060008181805b6002811015610ce9578a811415610c8457889150610cab565b89811415610c9157610cd9565b878160028110610ca357610ca3611575565b602002015191505b610cb582856115e2565b9350610cc28260026115c3565b610ccc86856115c3565b610cd69190611611565b92505b610ce281611633565b9050610c6b565b50610cf58560026115c3565b610cff85846115c3565b610d099190611611565b91506000610d178686611611565b610d2190856115e2565b9050600085815b60ff811015610da9578192508784836002610d4391906115c3565b610d4d91906115e2565b610d5791906115fa565b86610d6284806115c3565b610d6c91906115e2565b610d769190611611565b91506001610d848385610fa1565b11610d9957509750610de69650505050505050565b610da281611633565b9050610d28565b5060405162461bcd60e51b815260206004820152601160248201527079206469646e277420636f6e766572676560781b6044820152606401610213565b949350505050565b6000806002610dfe6001826115fa565b610e09906002611732565b610e15906103e86115c3565b610e1f91906115c3565b90506000805b6002811015610e6157848160028110610e4057610e40611575565b6020020151610e4f90836115e2565b9150610e5a81611633565b9050610e25565b50806000805b60ff811015610f64578260005b6002811015610ec557888160028110610e8f57610e8f611575565b6020020151610e9f9060026115c3565b610ea986846115c3565b610eb39190611611565b9150610ebe81611633565b9050610e74565b5083925080610ed6600260016115e2565b610ee091906115c3565b84610eec6001896115fa565b610ef691906115c3565b610f0091906115e2565b84610f0c8360026115c3565b610f16888a6115c3565b610f2091906115e2565b610f2a91906115c3565b610f349190611611565b93506001610f428585610fa1565b11610f535750919695505050505050565b50610f5d81611633565b9050610e67565b5060405162461bcd60e51b815260206004820152601160248201527044206469646e277420636f6e766572676560781b6044820152606401610213565b600081831015610fba57610fb583836115fa565b610fc4565b610fc482846115fa565b90505b92915050565b6001600160a01b03821660009081526007602052604081208054839290610ff59084906115e2565b92505081905550806006600082825461100e91906115e2565b90915550505050565b600654600090819081611028610bb2565b9050600061103582610dee565b905060008361104489846115c3565b61104e9190611611565b61105890836115fa565b9050600061106788858461128b565b905060006002896002811061107e5761107e611575565b015482868b6002811061109357611093611575565b60200201516110a291906115fa565b6110ac9190611611565b90506000805b60028110156111d0578a811415611102578386868984600281106110d8576110d8611575565b60200201516110e791906115c3565b6110f19190611611565b6110fb91906115fa565b9150611153565b858588836002811061111657611116611575565b602002015161112591906115c3565b61112f9190611611565b87826002811061114157611141611575565b602002015161115091906115fa565b91505b620f424082611164600160026115fa565b61116f9060046115c3565b61117c600261012c6115c3565b6111869190611611565b61119091906115c3565b61119a9190611611565b8782600281106111ac576111ac611575565b602002018181516111bd91906115fa565b9052506111c981611633565b90506110b2565b5060006111de8b888761128b565b905060028b600281106111f3576111f3611575565b0154600182898e6002811061120a5761120a611575565b602002015161121991906115fa565b61122391906115fa565b61122d9190611611565b99506112398a846115fa565b985050505050505050509250929050565b6001600160a01b038216600090815260076020526040812080548392906112729084906115fa565b92505081905550806006600082825461100e91906115fa565b600080600261129b6001826115fa565b6112a6906002611732565b6112b2906103e86115c3565b6112bc91906115c3565b905060008381805b6002811015611335578881146112f2578781600281106112e6576112e6611575565b602002015191506112f7565b611325565b61130182856115e2565b935061130e8260026115c3565b61131888856115c3565b6113229190611611565b92505b61132e81611633565b90506112c4565b506113418460026115c3565b61134b87846115c3565b6113559190611611565b915060006113638588611611565b61136d90856115e2565b9050600087815b60ff811015610da957819250898483600261138f91906115c3565b61139991906115e2565b6113a391906115fa565b866113ae84806115c3565b6113b891906115e2565b6113c29190611611565b915060016113d08385610fa1565b116113e4575096506113f495505050505050565b6113ed81611633565b9050611374565b9392505050565b60405180604001604052806002906020820280368337509192915050565b60006020828403121561142b57600080fd5b5035919050565b6000806000806080858703121561144857600080fd5b5050823594602084013594506040840135936060013592509050565b8060408101831015610fc757600080fd5b6000806060838503121561148857600080fd5b6114928484611464565b946040939093013593505050565b6000806000606084860312156114b557600080fd5b505081359360208301359350604090920135919050565b6000602082840312156114de57600080fd5b81356001600160a01b03811681146113f457600080fd5b6000806060838503121561150857600080fd5b823591506115198460208501611464565b90509250929050565b60408101818360005b600281101561154a57815183526020928301929091019060010161152b565b50505092915050565b6000806040838503121561156657600080fd5b50508035926020909101359150565b634e487b7160e01b600052603260045260246000fd5b60006020828403121561159d57600080fd5b815180151581146113f457600080fd5b634e487b7160e01b600052601160045260246000fd5b60008160001904831182151516156115dd576115dd6115ad565b500290565b600082198211156115f5576115f56115ad565b500190565b60008282101561160c5761160c6115ad565b500390565b60008261162e57634e487b7160e01b600052601260045260246000fd5b500490565b6000600019821415611647576116476115ad565b5060010190565b600181815b8085111561168957816000190482111561166f5761166f6115ad565b8085161561167c57918102915b93841c9390800290611653565b509250929050565b6000826116a057506001610fc7565b816116ad57506000610fc7565b81600181146116c357600281146116cd576116e9565b6001915050610fc7565b60ff8411156116de576116de6115ad565b50506001821b610fc7565b5060208310610133831016604e8410600b841016171561170c575081810a610fc7565b611716838361164e565b806000190482111561172a5761172a6115ad565b029392505050565b6000610fc4838361169156fea2646970667358221220434803c038194fd9cf40567544ab2a54c1cd673a62e416f6726fc24a2cf427ce64736f6c63430008090033a264697066735822122087ca6037a4f6eaef08aa800ad013183129f0252db605940b8505d74ead31838264736f6c63430008090033",
  "linkReferences": {},
  "deployedLinkReferences": {}
}