{
  "_format": "hh-sol-artifact-1",
  "contractName": "Pair",
  "sourceName": "contracts/Dex/Pair.sol",
  "abi": [
    {
      "inputs": [
        {
          "internalType": "address",
          "name": "_token0",
          "type": "address"
        },
        {
          "internalType": "address",
          "name": "_token1",
          "type": "address"
        }
      ],
      "stateMutability": "nonpayable",
      "type": "constructor"
    },
    {
      "inputs": [
        {
          "internalType": "address",
          "name": "",
          "type": "address"
        }
      ],
      "name": "_balances",
      "outputs": [
        {
          "internalType": "uint256",
          "name": "",
          "type": "uint256"
        }
      ],
      "stateMutability": "view",
      "type": "function"
    },
    {
      "inputs": [
        {
          "internalType": "address",
          "name": "",
          "type": "address"
        }
      ],
      "name": "_reserves",
      "outputs": [
        {
          "internalType": "uint256",
          "name": "",
          "type": "uint256"
        }
      ],
      "stateMutability": "view",
      "type": "function"
    },
    {
      "inputs": [
        {
          "internalType": "uint256",
          "name": "_amount0",
          "type": "uint256"
        },
        {
          "internalType": "uint256",
          "name": "_amount1",
          "type": "uint256"
        }
      ],
      "name": "addLiquidity",
      "outputs": [
        {
          "internalType": "uint256",
          "name": "shares",
          "type": "uint256"
        }
      ],
      "stateMutability": "nonpayable",
      "type": "function"
    },
    {
      "inputs": [
        {
          "internalType": "uint256",
          "name": "_shares",
          "type": "uint256"
        }
      ],
      "name": "removeLiquidity",
      "outputs": [
        {
          "internalType": "uint256",
          "name": "amount0",
          "type": "uint256"
        },
        {
          "internalType": "uint256",
          "name": "amount1",
          "type": "uint256"
        }
      ],
      "stateMutability": "nonpayable",
      "type": "function"
    },
    {
      "inputs": [
        {
          "internalType": "address",
          "name": "_tokenIn",
          "type": "address"
        },
        {
          "internalType": "uint256",
          "name": "_amountIn",
          "type": "uint256"
        }
      ],
      "name": "swap",
      "outputs": [
        {
          "internalType": "uint256",
          "name": "amountOut",
          "type": "uint256"
        }
      ],
      "stateMutability": "nonpayable",
      "type": "function"
    },
    {
      "inputs": [],
      "name": "token0",
      "outputs": [
        {
          "internalType": "address",
          "name": "",
          "type": "address"
        }
      ],
      "stateMutability": "view",
      "type": "function"
    },
    {
      "inputs": [],
      "name": "token1",
      "outputs": [
        {
          "internalType": "address",
          "name": "",
          "type": "address"
        }
      ],
      "stateMutability": "view",
      "type": "function"
    },
    {
      "inputs": [],
      "name": "totalSupply",
      "outputs": [
        {
          "internalType": "uint256",
          "name": "",
          "type": "uint256"
        }
      ],
      "stateMutability": "view",
      "type": "function"
    }
  ],
  "bytecode": "0x608060405234801561001057600080fd5b50604051610e41380380610e4183398101604081905261002f9161007c565b600080546001600160a01b039384166001600160a01b031991821617909155600180549290931691161790556100af565b80516001600160a01b038116811461007757600080fd5b919050565b6000806040838503121561008f57600080fd5b61009883610060565b91506100a660208401610060565b90509250929050565b610d83806100be6000396000f3fe608060405234801561001057600080fd5b50600436106100885760003560e01c80639cd441da1161005b5780639cd441da1461011c578063ac4fb5f41461012f578063d004f0f71461014f578063d21220a71461016257600080fd5b80630dfe16811461008d57806318160ddd146100bd5780636ebcf607146100d45780639c8f9f23146100f4575b600080fd5b6000546100a0906001600160a01b031681565b6040516001600160a01b0390911681526020015b60405180910390f35b6100c660035481565b6040519081526020016100b4565b6100c66100e2366004610c0c565b60046020526000908152604090205481565b610107610102366004610c27565b610175565b604080519283526020830191909152016100b4565b6100c661012a366004610c40565b610464565b6100c661013d366004610c0c565b60026020526000908152604090205481565b6100c661015d366004610c62565b61081e565b6001546100a0906001600160a01b031681565b600080546040516370a0823160e01b8152306004820152829182916001600160a01b03909116906370a082319060240160206040518083038186803b1580156101bd57600080fd5b505afa1580156101d1573d6000803e3d6000fd5b505050506040513d601f19601f820116820180604052508101906101f59190610c8c565b6001546040516370a0823160e01b81523060048201529192506000916001600160a01b03909116906370a082319060240160206040518083038186803b15801561023e57600080fd5b505afa158015610252573d6000803e3d6000fd5b505050506040513d601f19601f820116820180604052508101906102769190610c8c565b6003549091506102868387610cbb565b6102909190610cda565b6003549094506102a08387610cbb565b6102aa9190610cda565b92506000841180156102bc5750600083115b6103065760405162461bcd60e51b81526020600482015260166024820152750416d6f756e7430206f7220616d6f756e7431203d20360541b60448201526064015b60405180910390fd5b6103103386610ae1565b61035361031d8584610cfc565b6103278584610cfc565b600080546001600160a01b03908116825260026020526040808320949094556001541681529190912055565b60005460405163a9059cbb60e01b8152336004820152602481018690526001600160a01b039091169063a9059cbb90604401602060405180830381600087803b15801561039f57600080fd5b505af11580156103b3573d6000803e3d6000fd5b505050506040513d601f19601f820116820180604052508101906103d79190610d13565b5060015460405163a9059cbb60e01b8152336004820152602481018590526001600160a01b039091169063a9059cbb90604401602060405180830381600087803b15801561042457600080fd5b505af1158015610438573d6000803e3d6000fd5b505050506040513d601f19601f8201168201806040525081019061045c9190610d13565b505050915091565b600080546040516323b872dd60e01b8152336004820152306024820152604481018590526001600160a01b03909116906323b872dd90606401602060405180830381600087803b1580156104b757600080fd5b505af11580156104cb573d6000803e3d6000fd5b505050506040513d601f19601f820116820180604052508101906104ef9190610d13565b506001546040516323b872dd60e01b8152336004820152306024820152604481018490526001600160a01b03909116906323b872dd90606401602060405180830381600087803b15801561054257600080fd5b505af1158015610556573d6000803e3d6000fd5b505050506040513d601f19601f8201168201806040525081019061057a9190610d13565b50600080546001600160a01b03168152600260205260409020541515806105ba57506001546001600160a01b031660009081526002602052604090205415155b15610649576001546001600160a01b03166000908152600260205260409020546105e5908490610cbb565b600080546001600160a01b0316815260026020526040902054610609908490610cbb565b146106495760405162461bcd60e51b815260206004820152601060248201526f0c8f2405e40c8f040427a40f2405e40f60831b60448201526064016102fd565b6003546106695761066261065d8385610cbb565b610b2b565b90506106d8565b600080546001600160a01b03168152600260205260409020546003546106d591906106949086610cbb565b61069e9190610cda565b6001546001600160a01b03166000908152600260205260409020546003546106c69086610cbb565b6106d09190610cda565b610b9b565b90505b600081116107155760405162461bcd60e51b815260206004820152600a6024820152690536861726573203d20360b41b60448201526064016102fd565b61071f3382610bb4565b6000546040516370a0823160e01b8152306004820152610818916001600160a01b0316906370a08231906024015b60206040518083038186803b15801561076557600080fd5b505afa158015610779573d6000803e3d6000fd5b505050506040513d601f19601f8201168201806040525081019061079d9190610c8c565b6001546040516370a0823160e01b81523060048201526001600160a01b03909116906370a082319060240160206040518083038186803b1580156107e057600080fd5b505afa1580156107f4573d6000803e3d6000fd5b505050506040513d601f19601f820116820180604052508101906103279190610c8c565b92915050565b600080546001600160a01b038481169116148061084857506001546001600160a01b038481169116145b6108845760405162461bcd60e51b815260206004820152600d60248201526c24b73b30b634b2103a37b5b2b760991b60448201526064016102fd565b600082116108c25760405162461bcd60e51b815260206004820152600b60248201526a0416d6f756e7420697320360ac1b60448201526064016102fd565b600080546001600160a01b038581169116146108df5760006108e2565b60015b90506000806000808461092357600154600080546001600160a01b039283168083526002602052604080842054929094168084529390922054919291610950565b600080546001546001600160a01b0391821680845260026020526040808520549290931680855292909320545b6040516323b872dd60e01b8152336004820152306024820152604481018c9052939750919550935091506001600160a01b038516906323b872dd90606401602060405180830381600087803b1580156109a857600080fd5b505af11580156109bc573d6000803e3d6000fd5b505050506040513d601f19601f820116820180604052508101906109e09190610d13565b5060006103e86109f2896103d1610cbb565b6109fc9190610cda565b90506000610a0a8285610d35565b610a148385610cbb565b610a1e9190610cda565b60405163a9059cbb60e01b8152336004820152602481018290529091506001600160a01b0386169063a9059cbb90604401602060405180830381600087803b158015610a6957600080fd5b505af1158015610a7d573d6000803e3d6000fd5b505050506040513d601f19601f82011682018060405250810190610aa19190610d13565b506000546040516370a0823160e01b8152306004820152610ad4916001600160a01b0316906370a082319060240161074d565b5050505050505092915050565b6001600160a01b03821660009081526004602052604081208054839290610b09908490610cfc565b925050819055508060036000828254610b229190610cfc565b90915550505050565b60006003821115610b8c5750806000610b45600283610cda565b610b50906001610d35565b90505b81811015610b8657905080600281610b6b8186610cda565b610b759190610d35565b610b7f9190610cda565b9050610b53565b50919050565b8115610b96575060015b919050565b600081831115610bab5781610bad565b825b9392505050565b6001600160a01b03821660009081526004602052604081208054839290610bdc908490610d35565b925050819055508060036000828254610b229190610d35565b80356001600160a01b0381168114610b9657600080fd5b600060208284031215610c1e57600080fd5b610bad82610bf5565b600060208284031215610c3957600080fd5b5035919050565b60008060408385031215610c5357600080fd5b50508035926020909101359150565b60008060408385031215610c7557600080fd5b610c7e83610bf5565b946020939093013593505050565b600060208284031215610c9e57600080fd5b5051919050565b634e487b7160e01b600052601160045260246000fd5b6000816000190483118215151615610cd557610cd5610ca5565b500290565b600082610cf757634e487b7160e01b600052601260045260246000fd5b500490565b600082821015610d0e57610d0e610ca5565b500390565b600060208284031215610d2557600080fd5b81518015158114610bad57600080fd5b60008219821115610d4857610d48610ca5565b50019056fea2646970667358221220bf0f460e3830619fb84aa80e67e5160b670eb5a750e80cbf50bb51120bb29f6864736f6c63430008090033",
  "linkReferences": {},
  "deployedLinkReferences": {}
}